:100000000C9434000C9448000C9446000C94460068
:100010000C9446000C9446000C9446000C94460048
:100020000C9446000C9446000C9446000C94460038
:100030000C9446000C9446000C9446000C94460028
:100040000C9446000C9446000C9446000C94460018
:100050000C9446000C9446000C9446000C94460008
:100060000C9446000C94460011241FBECFEFD4E040
:10007000DEBFCDBF11E0A0E0B1E001C01D92A23013
:10008000B107E1F70E9462000C949A000C94000002
:100090001F920F920FB60F9211248F93809100013F
:1000A000823019F41092010107C080910001882369
:1000B00019F482E0809301018F910F900FBE0F9091
:1000C0001F90189581E08093010182E080930001E8
:1000D000E89A8091690082608093690078941AB8E8
:1000E0008FEF84B987B968EA71E644ED50E331E0F7
:1000F000EFEF20910101222319F02230D1F70CC03B
:10010000E5B938B9CB010197F1F718B8CA010197E1
:10011000F1F7109200010BC015B828B9CB01019777
:10012000F1F718B8CA010197F1F720930001309355
:080130000101DFCFF894FFCFBD
:00000001FF
